{"abi":[{"type":"constructor","inputs":[{"name":"_zircuitToken","type":"address","internalType":"address"}],"stateMutability":"nonpayable"},{"type":"function","name":"acceptFren","inputs":[{"name":"tokenId","type":"uint256","internalType":"uint256"},{"name":"frenId","type":"uint256","internalType":"uint256"}],"outputs":[{"name":"","type":"bool","internalType":"bool"}],"stateMutability":"nonpayable"},{"type":"function","name":"addFren","inputs":[{"name":"tokenId","type":"uint256","internalType":"uint256"},{"name":"frenId","type":"uint256","internalType":"uint256"}],"outputs":[],"stateMutability":"nonpayable"},{"type":"function","name":"approve","inputs":[{"name":"to","type":"address","internalType":"address"},{"name":"tokenId","type":"uint256","internalType":"uint256"}],"outputs":[],"stateMutability":"nonpayable"},{"type":"function","name":"balanceOf","inputs":[{"name":"owner","type":"address","internalType":"address"}],"outputs":[{"name":"","type":"uint256","internalType":"uint256"}],"stateMutability":"view"},{"type":"function","name":"burn","inputs":[{"name":"tokenId","type":"uint256","internalType":"uint256"}],"outputs":[],"stateMutability":"nonpayable"},{"type":"function","name":"declineFren","inputs":[{"name":"frenId","type":"uint256","internalType":"uint256"},{"name":"tokenId","type":"uint256","internalType":"uint256"}],"outputs":[{"name":"","type":"bool","internalType":"bool"}],"stateMutability":"nonpayable"},{"type":"function","name":"feed","inputs":[{"name":"tokenId","type":"uint256","internalType":"uint256"},{"name":"foodAmount","type":"uint256","internalType":"uint256"}],"outputs":[],"stateMutability":"nonpayable"},{"type":"function","name":"getApproved","inputs":[{"name":"tokenId","type":"uint256","internalType":"uint256"}],"outputs":[{"name":"","type":"address","internalType":"address"}],"stateMutability":"view"},{"type":"function","name":"getCurrentTokenId","inputs":[],"outputs":[{"name":"","type":"uint256","internalType":"uint256"}],"stateMutability":"view"},{"type":"function","name":"getFrens","inputs":[{"name":"tokenId","type":"uint256","internalType":"uint256"}],"outputs":[{"name":"","type":"uint256[]","internalType":"uint256[]"}],"stateMutability":"view"},{"type":"function","name":"getPotetionalFrens","inputs":[{"name":"tokenId","type":"uint256","internalType":"uint256"}],"outputs":[{"name":"","type":"uint256[]","internalType":"uint256[]"}],"stateMutability":"view"},{"type":"function","name":"getZutchiAttributes","inputs":[{"name":"tokenId","type":"uint256","internalType":"uint256"}],"outputs":[{"name":"","type":"tuple","internalType":"struct Zutchi.ZutchiData","components":[{"name":"bornAtBlock","type":"uint256","internalType":"uint256"},{"name":"energy","type":"uint256","internalType":"uint256"},{"name":"health","type":"uint256","internalType":"uint256"},{"name":"level","type":"uint256","internalType":"uint256"},{"name":"xp","type":"uint256","internalType":"uint256"},{"name":"isBusy","type":"bool","internalType":"bool"},{"name":"freeAtBlock","type":"uint256","internalType":"uint256"},{"name":"hungryAtBlock","type":"uint256","internalType":"uint256"},{"name":"lastAteAt","type":"uint256","internalType":"uint256"},{"name":"nutrition","type":"uint256","internalType":"uint256"},{"name":"frens","type":"uint256[]","internalType":"uint256[]"},{"name":"potentialFrens","type":"uint256[]","internalType":"uint256[]"}]}],"stateMutability":"view"},{"type":"function","name":"isApprovedForAll","inputs":[{"name":"owner","type":"address","internalType":"address"},{"name":"operator","type":"address","internalType":"address"}],"outputs":[{"name":"","type":"bool","internalType":"bool"}],"stateMutability":"view"},{"type":"function","name":"mint","inputs":[],"outputs":[{"name":"","type":"uint256","internalType":"uint256"}],"stateMutability":"payable"},{"type":"function","name":"name","inputs":[],"outputs":[{"name":"","type":"string","internalType":"string"}],"stateMutability":"view"},{"type":"function","name":"owner","inputs":[],"outputs":[{"name":"","type":"address","internalType":"address"}],"stateMutability":"view"},{"type":"function","name":"ownerOf","inputs":[{"name":"tokenId","type":"uint256","internalType":"uint256"}],"outputs":[{"name":"","type":"address","internalType":"address"}],"stateMutability":"view"},{"type":"function","name":"putToSleep","inputs":[{"name":"tokenId","type":"uint256","internalType":"uint256"},{"name":"sleepDuration","type":"uint256","internalType":"uint256"}],"outputs":[],"stateMutability":"nonpayable"},{"type":"function","name":"putToWork","inputs":[{"name":"tokenId","type":"uint256","internalType":"uint256"},{"name":"workDuration","type":"uint256","internalType":"uint256"}],"outputs":[],"stateMutability":"nonpayable"},{"type":"function","name":"renounceOwnership","inputs":[],"outputs":[],"stateMutability":"nonpayable"},{"type":"function","name":"safeTransferFrom","inputs":[{"name":"from","type":"address","internalType":"address"},{"name":"to","type":"address","internalType":"address"},{"name":"tokenId","type":"uint256","internalType":"uint256"}],"outputs":[],"stateMutability":"nonpayable"},{"type":"function","name":"safeTransferFrom","inputs":[{"name":"from","type":"address","internalType":"address"},{"name":"to","type":"address","internalType":"address"},{"name":"tokenId","type":"uint256","internalType":"uint256"},{"name":"data","type":"bytes","internalType":"bytes"}],"outputs":[],"stateMutability":"nonpayable"},{"type":"function","name":"setApprovalForAll","inputs":[{"name":"operator","type":"address","internalType":"address"},{"name":"approved","type":"bool","internalType":"bool"}],"outputs":[],"stateMutability":"nonpayable"},{"type":"function","name":"setBaseURI","inputs":[{"name":"baseURI","type":"string","internalType":"string"}],"outputs":[],"stateMutability":"nonpayable"},{"type":"function","name":"supportsInterface","inputs":[{"name":"interfaceId","type":"bytes4","internalType":"bytes4"}],"outputs":[{"name":"","type":"bool","internalType":"bool"}],"stateMutability":"view"},{"type":"function","name":"symbol","inputs":[],"outputs":[{"name":"","type":"string","internalType":"string"}],"stateMutability":"view"},{"type":"function","name":"tokenURI","inputs":[{"name":"tokenId","type":"uint256","internalType":"uint256"}],"outputs":[{"name":"","type":"string","internalType":"string"}],"stateMutability":"view"},{"type":"function","name":"totalSupply","inputs":[],"outputs":[{"name":"","type":"uint256","internalType":"uint256"}],"stateMutability":"view"},{"type":"function","name":"transferFrom","inputs":[{"name":"from","type":"address","internalType":"address"},{"name":"to","type":"address","internalType":"address"},{"name":"tokenId","type":"uint256","internalType":"uint256"}],"outputs":[],"stateMutability":"nonpayable"},{"type":"function","name":"transferOwnership","inputs":[{"name":"newOwner","type":"address","internalType":"address"}],"outputs":[],"stateMutability":"nonpayable"},{"type":"function","name":"withdrawZRC","inputs":[],"outputs":[{"name":"","type":"bool","internalType":"bool"}],"stateMutability":"nonpayable"},{"type":"function","name":"zircuitToken","inputs":[],"outputs":[{"name":"","type":"address","internalType":"address"}],"stateMutability":"view"},{"type":"function","name":"zutchis","inputs":[{"name":"","type":"uint256","internalType":"uint256"}],"outputs":[{"name":"bornAtBlock","type":"uint256","internalType":"uint256"},{"name":"energy","type":"uint256","internalType":"uint256"},{"name":"health","type":"uint256","internalType":"uint256"},{"name":"level","type":"uint256","internalType":"uint256"},{"name":"xp","type":"uint256","internalType":"uint256"},{"name":"isBusy","type":"bool","internalType":"bool"},{"name":"freeAtBlock","type":"uint256","internalType":"uint256"},{"name":"hungryAtBlock","type":"uint256","internalType":"uint256"},{"name":"lastAteAt","type":"uint256","internalType":"uint256"},{"name":"nutrition","type":"uint256","internalType":"uint256"}],"stateMutability":"view"},{"type":"event","name":"Approval","inputs":[{"name":"owner","type":"address","indexed":true,"internalType":"address"},{"name":"approved","type":"address","indexed":true,"internalType":"address"},{"name":"tokenId","type":"uint256","indexed":true,"internalType":"uint256"}],"anonymous":false},{"type":"event","name":"ApprovalForAll","inputs":[{"name":"owner","type":"address","indexed":true,"internalType":"address"},{"name":"operator","type":"address","indexed":true,"internalType":"address"},{"name":"approved","type":"bool","indexed":false,"internalType":"bool"}],"anonymous":false},{"type":"event","name":"BaseURIUpdated","inputs":[{"name":"newBaseURI","type":"string","indexed":false,"internalType":"string"}],"anonymous":false},{"type":"event","name":"LevelUp","inputs":[{"name":"level","type":"uint256","indexed":false,"internalType":"uint256"}],"anonymous":false},{"type":"event","name":"OwnershipTransferred","inputs":[{"name":"previousOwner","type":"address","indexed":true,"internalType":"address"},{"name":"newOwner","type":"address","indexed":true,"internalType":"address"}],"anonymous":false},{"type":"event","name":"TokenBurned","inputs":[{"name":"tokenId","type":"uint256","indexed":true,"internalType":"uint256"}],"anonymous":false},{"type":"event","name":"TokenMinted","inputs":[{"name":"to","type":"address","indexed":true,"internalType":"address"},{"name":"tokenId","type":"uint256","indexed":true,"internalType":"uint256"}],"anonymous":false},{"type":"event","name":"Transfer","inputs":[{"name":"from","type":"address","indexed":true,"internalType":"address"},{"name":"to","type":"address","indexed":true,"internalType":"address"},{"name":"tokenId","type":"uint256","indexed":true,"internalType":"uint256"}],"anonymous":false},{"type":"error","name":"ERC721IncorrectOwner","inputs":[{"name":"sender","type":"address","internalType":"address"},{"name":"tokenId","type":"uint256","internalType":"uint256"},{"name":"owner","type":"address","internalType":"address"}]},{"type":"error","name":"ERC721InsufficientApproval","inputs":[{"name":"operator","type":"address","internalType":"address"},{"name":"tokenId","type":"uint256","internalType":"uint256"}]},{"type":"error","name":"ERC721InvalidApprover","inputs":[{"name":"approver","type":"address","internalType":"address"}]},{"type":"error","name":"ERC721InvalidOperator","inputs":[{"name":"operator","type":"address","internalType":"address"}]},{"type":"error","name":"ERC721InvalidOwner","inputs":[{"name":"owner","type":"address","internalType":"address"}]},{"type":"error","name":"ERC721InvalidReceiver","inputs":[{"name":"receiver","type":"address","internalType":"address"}]},{"type":"error","name":"ERC721InvalidSender","inputs":[{"name":"sender","type":"address","internalType":"address"}]},{"type":"error","name":"ERC721NonexistentToken","inputs":[{"name":"tokenId","type":"uint256","internalType":"uint256"}]},{"type":"error","name":"OwnableInvalidOwner","inputs":[{"name":"owner","type":"address","internalType":"address"}]},{"type":"error","name":"OwnableUnauthorizedAccount","inputs":[{"name":"account","type":"address","internalType":"address"}]}],"bytecode":{"object":"0x60a060405234801561000f575f5ffd5b50604051612dda380380612dda83398101604081905261002e9161017b565b33604051806040016040528060068152602001655a757463686960d01b815250604051806040016040528060068152602001655a555443484960d01b815250815f908161007b9190610240565b5060016100888282610240565b5050506001600160a01b0381166100b957604051631e4fbdf760e01b81525f60048201526024015b60405180910390fd5b6100c28161012a565b506001600160a01b0381166101195760405162461bcd60e51b815260206004820152601d60248201527f496e76616c6964205a49524355495420746f6b656e206164647265737300000060448201526064016100b0565b6001600160a01b03166080526102fa565b600680546001600160a01b038381166001600160a01b0319831681179093556040519116919082907f8be0079c531659141344cd1fd0a4f28419497f9722a3daafe3b4186f6b6457e0905f90a35050565b5f6020828403121561018b575f5ffd5b81516001600160a01b03811681146101a1575f5ffd5b9392505050565b634e487b7160e01b5f52604160045260245ffd5b600181811c908216806101d057607f821691505b6020821081036101ee57634e487b7160e01b5f52602260045260245ffd5b50919050565b601f82111561023b57805f5260205f20601f840160051c810160208510156102195750805b601f840160051c820191505b81811015610238575f8155600101610225565b50505b505050565b81516001600160401b03811115610259576102596101a8565b61026d8161026784546101bc565b846101f4565b6020601f82116001811461029f575f83156102885750848201515b5f19600385901b1c1916600184901b178455610238565b5f84815260208120601f198516915b828110156102ce57878501518255602094850194600190920191016102ae565b50848210156102eb57868401515f19600387901b60f8161c191681555b50505050600190811b01905550565b608051612ab36103275f395f8181610429015281816111ac0152818161192601526119a10152612ab35ff3fe6080604052600436106101e6575f3560e01c80636352211e1161010857806395d89b411161009d578063c87b56dd1161006d578063c87b56dd14610611578063e985e9c514610630578063f12e86f71461064f578063f2fde38b1461066e578063ffee7e3c1461068d575f5ffd5b806395d89b4114610593578063a22cb465146105a7578063ab3b0c71146105c6578063b88d4fde146105f2575f5ffd5b8063715018a6116100d8578063715018a6146104895780637b9317141461049d5780638ba9c99a146104bc5780638da5cb5b14610576575f5ffd5b80636352211e146103f95780636a864921146104185780636d6aa5bb1461044b57806370a082311461046a575f5ffd5b806323b872dd1161017e578063435298ed1161014e578063435298ed1461038857806355f804b3146103a757806356189236146103c6578063573c498f146103da575f5ffd5b806323b872dd1461030c57806333c020c21461032b57806342842e0e1461034a57806342966c6814610369575f5ffd5b80631249c58b116101b95780631249c58b1461029757806318160ddd146102ad5780631cfa6ec1146102c15780631deb1c21146102ed575f5ffd5b806301ffc9a7146101ea57806306fdde031461021e578063081812fc1461023f578063095ea7b314610276575b5f5ffd5b3480156101f5575f5ffd5b5061020961020436600461224e565b6106a1565b60405190151581526020015b60405180910390f35b348015610229575f5ffd5b506102326106f2565b6040516102159190612297565b34801561024a575f5ffd5b5061025e6102593660046122a9565b610781565b6040516001600160a01b039091168152602001610215565b348015610281575f5ffd5b506102956102903660046122db565b6107a8565b005b61029f6107b7565b604051908152602001610215565b3480156102b8575f5ffd5b5060085461029f565b3480156102cc575f5ffd5b506102e06102db3660046122a9565b610996565b6040516102159190612303565b3480156102f8575f5ffd5b50610295610307366004612345565b6109f8565b348015610317575f5ffd5b50610295610326366004612365565b610c99565b348015610336575f5ffd5b506102e06103453660046122a9565b610d22565b348015610355575f5ffd5b50610295610364366004612365565b610d82565b348015610374575f5ffd5b506102956103833660046122a9565b610d9c565b348015610393575f5ffd5b506102956103a2366004612345565b610dee565b3480156103b2575f5ffd5b506102956103c136600461242a565b61100e565b3480156103d1575f5ffd5b5060075461029f565b3480156103e5575f5ffd5b506102956103f4366004612345565b61105d565b348015610404575f5ffd5b5061025e6104133660046122a9565b6110db565b348015610423575f5ffd5b5061025e7f000000000000000000000000000000000000000000000000000000000000000081565b348015610456575f5ffd5b50610295610465366004612345565b6110e5565b348015610475575f5ffd5b5061029f61048436600461246f565b61132b565b348015610494575f5ffd5b50610295611370565b3480156104a8575f5ffd5b506102096104b7366004612345565b611383565b3480156104c7575f5ffd5b5061052a6104d63660046122a9565b600a6020525f908152604090208054600182015460028301546003840154600485015460058601546006870154600788015460088901546009909901549798969795969495939460ff90931693919290918a565b604080519a8b5260208b01999099529789019690965260608801949094526080870192909252151560a086015260c085015260e084015261010083015261012082015261014001610215565b348015610581575f5ffd5b506006546001600160a01b031661025e565b34801561059e575f5ffd5b506102326114e4565b3480156105b2575f5ffd5b506102956105c1366004612495565b6114f3565b3480156105d1575f5ffd5b506105e56105e03660046122a9565b6114fe565b6040516102159190612504565b3480156105fd575f5ffd5b5061029561060c3660046125be565b6116d1565b34801561061c575f5ffd5b5061023261062b3660046122a9565b6116e9565b34801561063b575f5ffd5b5061020961064a366004612635565b61174e565b34801561065a575f5ffd5b50610209610669366004612345565b61177b565b348015610679575f5ffd5b5061029561068836600461246f565b61188f565b348015610698575f5ffd5b506102096118cc565b5f6001600160e01b031982166380ac58cd60e01b14806106d157506001600160e01b03198216635b5e139f60e01b145b806106ec57506301ffc9a760e01b6001600160e01b03198316145b92915050565b60605f805461070090612666565b80601f016020809104026020016040519081016040528092919081815260200182805461072c90612666565b80156107775780601f1061074e57610100808354040283529160200191610777565b820191905f5260205f20905b81548152906001019060200180831161075a57829003601f168201915b5050505050905090565b5f61078b82611a56565b505f828152600460205260409020546001600160a01b03166106ec565b6107b3828233611a8e565b5050565b600780545f91826107c7836126b2565b90915550506007546107d93382611a9b565b60088054905f6107e8836126b2565b919050555060405180610180016040528043815260200168056bc75e2d6310000081526020016064815260200160018152602001600181526020015f151581526020015f815260200143620186a061084091906126ca565b8152436020820152603260408201526060015f60405190808252806020026020018201604052801561087c578160200160208202803683370190505b5081526020015f6040519080825280602002602001820160405280156108ac578160200160208202803683370190505b5090525f828152600a602081815260409283902084518155848201516001820155928401516002840155606084015160038401556080840151600484015560a084015160058401805460ff191691151591909117905560c0840151600684015560e084015160078401556101008401516008840155610120840151600984015561014084015180516109459385019291909101906121dc565b50610160820151805161096291600b8401916020909101906121dc565b505060405182915033907fb9144c96c86541f6fa89c9f2f02495cccf4b08cd6643e26d34ee00aa586558a8905f90a3919050565b5f818152600a6020908152604091829020600b018054835181840281018401909452808452606093928301828280156109ec57602002820191905f5260205f20905b8154815260200190600101908083116109d8575b50505050509050919050565b610a01826110db565b6001600160a01b0316336001600160a01b031614610a3a5760405162461bcd60e51b8152600401610a31906126dd565b60405180910390fd5b5f828152600a6020526040902060060154431015610a6a5760405162461bcd60e51b8152600401610a31906126ff565b5f828152600a6020526040902060070154610a8582436126ca565b1115610abc5760405162461bcd60e51b815260206004820152600660248201526568756e67727960d01b6044820152606401610a31565b5f828152600a60205260409020600501805460ff19166001179055610ae181436126ca565b5f838152600a602052604081206006810192909255600990910154610b0d90662386f26fc1000061271f565b610b1f90670de0b6b3a76400006126ca565b610b29908361271f565b5f848152600a602052604090206001015490915068056bc75e2d6310000090610b539083906126ca565b11610b79575f838152600a6020526040902060010154610b749082906126ca565b610b84565b68056bc75e2d631000005b5f848152600a6020526040902060010155610ba0600283612736565b5f848152600a602052604081206004018054909190610bc09084906126ca565b90915550505f838152600a602052604090206003810154600490910154600290911811610c94575f838152600a60205260408120600301805460019290610c089084906126ca565b90915550505f838152600a6020526040902060030154610c29906002612838565b5f848152600a602052604081206004018054909190610c49908490612843565b90915550505f838152600a60209081526040918290206003015491519182527f6a1b6f91db361bdf7356d3942ed64f2ee2fea430979dbba7ea23f44e8b211007910160405180910390a15b505050565b6001600160a01b038216610cc257604051633250574960e11b81525f6004820152602401610a31565b5f610cce838333611ab4565b9050836001600160a01b0316816001600160a01b031614610d1c576040516364283d7b60e01b81526001600160a01b0380861660048301526024820184905282166044820152606401610a31565b50505050565b5f818152600a60208181526040928390209091018054835181840281018401909452808452606093928301828280156109ec57602002820191905f5260205f20908154815260200190600101908083116109d85750505050509050919050565b610c9483838360405180602001604052805f8152506116d1565b610da4611ba6565b60088054905f610db383612856565b9190505550610dc181611bd3565b60405181907f0c526103b8f47af5516191d0c89a598755bd00faa211a3cb52e4c2cc782f7fe2905f90a250565b610df7826110db565b6001600160a01b0316336001600160a01b031614610e275760405162461bcd60e51b8152600401610a31906126dd565b5f828152600a6020526040902060060154431015610e575760405162461bcd60e51b8152600401610a31906126ff565b5f828152600a6020526040902060070154610e7282436126ca565b1115610ea95760405162461bcd60e51b815260206004820152600660248201526568756e67727960d01b6044820152606401610a31565b5f828152600a6020526040812060090154606490610ec790826126ca565b5f858152600a6020526040902060010154610ee2919061271f565b610eec9190612736565b9050610f0082670de0b6b3a764000061271f565b811015610f3a5760405162461bcd60e51b81526020600482015260086024820152676e6f456e6572677960c01b6044820152606401610a31565b5f838152600a60205260409020600501805460ff19166001179055610f5f82436126ca565b5f848152600a6020526040902060060155610f8282670de0b6b3a764000061271f565b610f8c9082612843565b5f848152600a60205260408120600181019290925560049091018054849290610fb69084906126ca565b90915550505f838152600a6020526040902060030154610fd7906002612838565b5f848152600a602052604090206004015410610c94575f838152600a60205260408120600301805460019290610c499084906126ca565b611016611ba6565b600961102282826128af565b507f6741b2fc379fad678116fe3d4d4b9a1a184ab53ba36b86ad0fa66340b1ab41ad816040516110529190612297565b60405180910390a150565b611066826110db565b6001600160a01b0316336001600160a01b0316146110965760405162461bcd60e51b8152600401610a31906126dd565b6008548111156110b85760405162461bcd60e51b8152600401610a319061296a565b5f908152600a602090815260408220600b01805460018101825590835291200155565b5f6106ec82611a56565b6110ee826110db565b6001600160a01b0316336001600160a01b03161461111e5760405162461bcd60e51b8152600401610a31906126dd565b5f828152600a602052604090206006015443101561114e5760405162461bcd60e51b8152600401610a31906126ff565b5f811161118a5760405162461bcd60e51b815260206004820152600a602482015269199bdbd9105b5bdd5b9d60b21b6044820152606401610a31565b6040516323b872dd60e01b8152336004820152306024820152604481018290527f00000000000000000000000000000000000000000000000000000000000000006001600160a01b0316906323b872dd906064016020604051808303815f875af11580156111fa573d5f5f3e3d5ffd5b505050506040513d601f19601f8201168201806040525081019061121e91906129a1565b505f828152600a60205260408120600901805483929061123f9084906126ca565b9091555061125190508161271061271f565b61125b90436126ca565b5f838152600a602052604081206007810192909255600490910180548392906112859084906126ca565b90915550505f828152600a60205260409020600301546112a6906002612838565b5f838152600a6020526040902060040154106107b3575f828152600a602052604081206003018054600192906112dd9084906126ca565b90915550505f828152600a60209081526040918290206003015491519182527f6a1b6f91db361bdf7356d3942ed64f2ee2fea430979dbba7ea23f44e8b211007910160405180910390a15050565b5f6001600160a01b038216611355576040516322718ad960e21b81525f6004820152602401610a31565b506001600160a01b03165f9081526003602052604090205490565b611378611ba6565b6113815f611c0b565b565b5f61138d836110db565b6001600160a01b0316336001600160a01b0316146113bd5760405162461bcd60e51b8152600401610a31906126dd565b6008548211156113df5760405162461bcd60e51b8152600401610a319061296a565b5f838152600a60205260408120600b01805490915b818110156114d9578483828154811061140f5761140f6129bc565b905f5260205f200154036114d15782611429600184612843565b81548110611439576114396129bc565b905f5260205f200154838281548110611454576114546129bc565b905f5260205f20018190555082805480611470576114706129d0565b5f828152602080822083015f19908101839055909201909255878252600a80825260408084208201805460018181018355918652848620018a905589855290842090910180548083018255908452919092200187905593506106ec92505050565b6001016113f4565b505f95945050505050565b60606001805461070090612666565b6107b3338383611c5c565b61155a6040518061018001604052805f81526020015f81526020015f81526020015f81526020015f81526020015f151581526020015f81526020015f81526020015f81526020015f815260200160608152602001606081525090565b8160085410156115a35760405162461bcd60e51b8152602060048201526014602482015273151bdad95b88191bd95cc81b9bdd08195e1a5cdd60621b6044820152606401610a31565b5f828152600a6020818152604092839020835161018081018552815481526001820154818401526002820154818601526003820154606082015260048201546080820152600582015460ff16151560a0820152600682015460c0820152600782015460e08201526008820154610100820152600982015461012082015292810180548551818502810185019096528086529394919361014086019383018282801561166b57602002820191905f5260205f20905b815481526020019060010190808311611657575b50505050508152602001600b82018054806020026020016040519081016040528092919081815260200182805480156116c157602002820191905f5260205f20905b8154815260200190600101908083116116ad575b5050505050815250509050919050565b6116dc848484610c99565b610d1c3385858585611cfa565b60606116f482611a56565b505f6116fe611e22565b90505f81511161171c5760405180602001604052805f815250611747565b8061172684611e31565b6040516020016117379291906129fb565b6040516020818303038152906040525b9392505050565b6001600160a01b039182165f90815260056020908152604080832093909416825291909152205460ff1690565b5f611785826110db565b6001600160a01b0316336001600160a01b0316146117b55760405162461bcd60e51b8152600401610a31906126dd565b6008548311156117d75760405162461bcd60e51b8152600401610a319061296a565b5f828152600a60205260408120600b01805490915b818110156114d95785838281548110611807576118076129bc565b905f5260205f200154036118875782611821600184612843565b81548110611831576118316129bc565b905f5260205f20015483828154811061184c5761184c6129bc565b905f5260205f20018190555082805480611868576118686129d0565b600190038181905f5260205f20015f90559055600193505050506106ec565b6001016117ec565b611897611ba6565b6001600160a01b0381166118c057604051631e4fbdf760e01b81525f6004820152602401610a31565b6118c981611c0b565b50565b5f6118df6006546001600160a01b031690565b6001600160a01b0316336001600160a01b03161461190f5760405162461bcd60e51b8152600401610a31906126dd565b6040516370a0823160e01b81523060048201525f907f00000000000000000000000000000000000000000000000000000000000000006001600160a01b0316906370a0823190602401602060405180830381865afa158015611973573d5f5f3e3d5ffd5b505050506040513d601f19601f820116820180604052508101906119979190612a0f565b90508015611a50577f00000000000000000000000000000000000000000000000000000000000000006001600160a01b031663a9059cbb6119e06006546001600160a01b031690565b6040516001600160e01b031960e084901b1681526001600160a01b039091166004820152602481018490526044016020604051808303815f875af1158015611a2a573d5f5f3e3d5ffd5b505050506040513d601f19601f82011682018060405250810190611a4e91906129a1565b505b15919050565b5f818152600260205260408120546001600160a01b0316806106ec57604051637e27328960e01b815260048101849052602401610a31565b610c948383836001611ec1565b6107b3828260405180602001604052805f815250611fc5565b5f828152600260205260408120546001600160a01b0390811690831615611ae057611ae0818486611fdc565b6001600160a01b03811615611b1a57611afb5f855f5f611ec1565b6001600160a01b0381165f90815260036020526040902080545f190190555b6001600160a01b03851615611b48576001600160a01b0385165f908152600360205260409020805460010190555b5f8481526002602052604080822080546001600160a01b0319166001600160a01b0389811691821790925591518793918516917fddf252ad1be2c89b69c2b068fc378daa952ba7f163c4a11628f55a4df523b3ef91a4949350505050565b6006546001600160a01b031633146113815760405163118cdaa760e01b8152336004820152602401610a31565b5f611bdf5f835f611ab4565b90506001600160a01b0381166107b357604051637e27328960e01b815260048101839052602401610a31565b600680546001600160a01b038381166001600160a01b0319831681179093556040519116919082907f8be0079c531659141344cd1fd0a4f28419497f9722a3daafe3b4186f6b6457e0905f90a35050565b6001600160a01b038216611c8e57604051630b61174360e31b81526001600160a01b0383166004820152602401610a31565b6001600160a01b038381165f81815260056020908152604080832094871680845294825291829020805460ff191686151590811790915591519182527f17307eab39ab6107e8899845ad3d59bd9653f200f220920489ca2b5937696c31910160405180910390a3505050565b6001600160a01b0383163b15611e1b57604051630a85bd0160e11b81526001600160a01b0384169063150b7a0290611d3c908890889087908790600401612a26565b6020604051808303815f875af1925050508015611d76575060408051601f3d908101601f19168201909252611d7391810190612a62565b60015b611ddd573d808015611da3576040519150601f19603f3d011682016040523d82523d5f602084013e611da8565b606091505b5080515f03611dd557604051633250574960e11b81526001600160a01b0385166004820152602401610a31565b805160208201fd5b6001600160e01b03198116630a85bd0160e11b14611e1957604051633250574960e11b81526001600160a01b0385166004820152602401610a31565b505b5050505050565b60606009805461070090612666565b60605f611e3d83612040565b60010190505f8167ffffffffffffffff811115611e5c57611e5c61239f565b6040519080825280601f01601f191660200182016040528015611e86576020820181803683370190505b5090508181016020015b5f19016f181899199a1a9b1b9c1cb0b131b232b360811b600a86061a8153600a8504945084611e9057509392505050565b8080611ed557506001600160a01b03821615155b15611f96575f611ee484611a56565b90506001600160a01b03831615801590611f105750826001600160a01b0316816001600160a01b031614155b8015611f235750611f21818461174e565b155b15611f4c5760405163a9fbf51f60e01b81526001600160a01b0384166004820152602401610a31565b8115611f945783856001600160a01b0316826001600160a01b03167f8c5be1e5ebec7d5bd14f71427d1e84f3dd0314c0f7b2291e5b200ac8c7c3b92560405160405180910390a45b505b50505f90815260046020526040902080546001600160a01b0319166001600160a01b0392909216919091179055565b611fcf8383612117565b610c94335f858585611cfa565b611fe7838383612178565b610c94576001600160a01b03831661201557604051637e27328960e01b815260048101829052602401610a31565b60405163177e802f60e01b81526001600160a01b038316600482015260248101829052604401610a31565b5f8072184f03e93ff9f4daa797ed6e38ed64bf6a1f0160401b831061207e5772184f03e93ff9f4daa797ed6e38ed64bf6a1f0160401b830492506040015b6d04ee2d6d415b85acef810000000083106120aa576d04ee2d6d415b85acef8100000000830492506020015b662386f26fc1000083106120c857662386f26fc10000830492506010015b6305f5e10083106120e0576305f5e100830492506008015b61271083106120f457612710830492506004015b60648310612106576064830492506002015b600a83106106ec5760010192915050565b6001600160a01b03821661214057604051633250574960e11b81525f6004820152602401610a31565b5f61214c83835f611ab4565b90506001600160a01b03811615610c94576040516339e3563760e11b81525f6004820152602401610a31565b5f6001600160a01b038316158015906121d45750826001600160a01b0316846001600160a01b031614806121b157506121b1848461174e565b806121d457505f828152600460205260409020546001600160a01b038481169116145b949350505050565b828054828255905f5260205f20908101928215612215579160200282015b828111156122155782518255916020019190600101906121fa565b50612221929150612225565b5090565b5b80821115612221575f8155600101612226565b6001600160e01b0319811681146118c9575f5ffd5b5f6020828403121561225e575f5ffd5b813561174781612239565b5f81518084528060208401602086015e5f602082860101526020601f19601f83011685010191505092915050565b602081525f6117476020830184612269565b5f602082840312156122b9575f5ffd5b5035919050565b80356001600160a01b03811681146122d6575f5ffd5b919050565b5f5f604083850312156122ec575f5ffd5b6122f5836122c0565b946020939093013593505050565b602080825282518282018190525f918401906040840190835b8181101561233a57835183526020938401939092019160010161231c565b509095945050505050565b5f5f60408385031215612356575f5ffd5b50508035926020909101359150565b5f5f5f60608486031215612377575f5ffd5b612380846122c0565b925061238e602085016122c0565b929592945050506040919091013590565b634e487b7160e01b5f52604160045260245ffd5b5f5f67ffffffffffffffff8411156123cd576123cd61239f565b50604051601f19601f85018116603f0116810181811067ffffffffffffffff821117156123fc576123fc61239f565b604052838152905080828401851015612413575f5ffd5b838360208301375f60208583010152509392505050565b5f6020828403121561243a575f5ffd5b813567ffffffffffffffff811115612450575f5ffd5b8201601f81018413612460575f5ffd5b6121d4848235602084016123b3565b5f6020828403121561247f575f5ffd5b611747826122c0565b80151581146118c9575f5ffd5b5f5f604083850312156124a6575f5ffd5b6124af836122c0565b915060208301356124bf81612488565b809150509250929050565b5f8151808452602084019350602083015f5b828110156124fa5781518652602095860195909101906001016124dc565b5093949350505050565b6020815281516020820152602082015160408201526040820151606082015260608201516080820152608082015160a08201525f60a083015161254b60c084018215159052565b5060c083015160e083015260e08301516101008301526101008301516101208301526101208301516101408301526101408301516101806101608401526125966101a08401826124ca565b9050610160840151601f19848303016101808501526125b582826124ca565b95945050505050565b5f5f5f5f608085870312156125d1575f5ffd5b6125da856122c0565b93506125e8602086016122c0565b925060408501359150606085013567ffffffffffffffff81111561260a575f5ffd5b8501601f8101871361261a575f5ffd5b612629878235602084016123b3565b91505092959194509250565b5f5f60408385031215612646575f5ffd5b61264f836122c0565b915061265d602084016122c0565b90509250929050565b600181811c9082168061267a57607f821691505b60208210810361269857634e487b7160e01b5f52602260045260245ffd5b50919050565b634e487b7160e01b5f52601160045260245ffd5b5f600182016126c3576126c361269e565b5060010190565b808201808211156106ec576106ec61269e565b6020808252600890820152673737ba27bbb732b960c11b604082015260600190565b60208082526006908201526569734275737960d01b604082015260600190565b80820281158282048414176106ec576106ec61269e565b5f8261275057634e487b7160e01b5f52601260045260245ffd5b500490565b6001815b6001841115612790578085048111156127745761277461269e565b600184161561278257908102905b60019390931c928002612759565b935093915050565b5f826127a6575060016106ec565b816127b257505f6106ec565b81600181146127c857600281146127d2576127ee565b60019150506106ec565b60ff8411156127e3576127e361269e565b50506001821b6106ec565b5060208310610133831016604e8410600b8410161715612811575081810a6106ec565b61281d5f198484612755565b805f19048211156128305761283061269e565b029392505050565b5f6117478383612798565b818103818111156106ec576106ec61269e565b5f816128645761286461269e565b505f190190565b601f821115610c9457805f5260205f20601f840160051c810160208510156128905750805b601f840160051c820191505b81811015611e1b575f815560010161289c565b815167ffffffffffffffff8111156128c9576128c961239f565b6128dd816128d78454612666565b8461286b565b6020601f82116001811461290f575f83156128f85750848201515b5f19600385901b1c1916600184901b178455611e1b565b5f84815260208120601f198516915b8281101561293e578785015182556020948501946001909201910161291e565b508482101561295b57868401515f19600387901b60f8161c191681555b50505050600190811b01905550565b60208082526019908201527f4672656e20746f6b656e20646f6573206e6f7420657869737400000000000000604082015260600190565b5f602082840312156129b1575f5ffd5b815161174781612488565b634e487b7160e01b5f52603260045260245ffd5b634e487b7160e01b5f52603160045260245ffd5b5f81518060208401855e5f93019283525090919050565b5f6121d4612a0983866129e4565b846129e4565b5f60208284031215612a1f575f5ffd5b5051919050565b6001600160a01b03858116825284166020820152604081018390526080606082018190525f90612a5890830184612269565b9695505050505050565b5f60208284031215612a72575f5ffd5b81516117478161223956fea26469706673582212204610bd7d8650c2bb85521c9a4ff0f73ca7e069623ed4d9b01da3e04bbdb296a864736f6c634300081c0033","linkReferences":{}},"methodIdentifiers":{"acceptFren(uint256,uint256)":"7b931714","addFren(uint256,uint256)":"573c498f","approve(address,uint256)":"095ea7b3","balanceOf(address)":"70a08231","burn(uint256)":"42966c68","declineFren(uint256,uint256)":"f12e86f7","feed(uint256,uint256)":"6d6aa5bb","getApproved(uint256)":"081812fc","getCurrentTokenId()":"56189236","getFrens(uint256)":"33c020c2","getPotetionalFrens(uint256)":"1cfa6ec1","getZutchiAttributes(uint256)":"ab3b0c71","isApprovedForAll(address,address)":"e985e9c5","mint()":"1249c58b","name()":"06fdde03","owner()":"8da5cb5b","ownerOf(uint256)":"6352211e","putToSleep(uint256,uint256)":"1deb1c21","putToWork(uint256,uint256)":"435298ed","renounceOwnership()":"715018a6","safeTransferFrom(address,address,uint256)":"42842e0e","safeTransferFrom(address,address,uint256,bytes)":"b88d4fde","setApprovalForAll(address,bool)":"a22cb465","setBaseURI(string)":"55f804b3","supportsInterface(bytes4)":"01ffc9a7","symbol()":"95d89b41","tokenURI(uint256)":"c87b56dd","totalSupply()":"18160ddd","transferFrom(address,address,uint256)":"23b872dd","transferOwnership(address)":"f2fde38b","withdrawZRC()":"ffee7e3c","zircuitToken()":"6a864921","zutchis(uint256)":"8ba9c99a"},"id":1}